:020000040800F2
:1000000000000220554D00089D490008A549000840
:10001000AD490008B5490008BD49000800000000CE
:10002000000000000000000000000000C5490008BA
:10003000D349000800000000E1490008EF4900082A
:10004000A54D0008A54D0008A54D0008A54D0008C8
:10005000A54D0008A54D0008614000087940000842
:1000600091400008A9400008C1400008A54D0008C3
:10007000A54D0008A54D0008A54D0008A54D000898
:10008000FD490008A54D0008A54D0008A54D000834
:10009000A54D0008A54D0008A54D0008D940000851
:1000A000114A00082D4A0008414A0008554A000834
:1000B000694A00087D4A0008914A0008A54D0008D9
:1000C000A54D0008A54D0008A54D0008A54D000848
:1000D000A54D0008A54D0008A54A0008A54D00083B
:1000E000F1400008A54D0008A54D0008254B00086B
:1000F000414B0008554B0008694B0008A54D00080E
:10010000A54D0008A54D00087D4B0008A54D000831
:10011000A54D0008A54D0008A54D0008A54D0008F7
:10012000A54D0008A54D0008A54D0008A54D0008E7
:10013000A54D0008A54D0008A54D0008A54D0008D7
:10014000A54D0008A54D0008A54D0008914B0008DD
:10015000A54D0008A54D0008A54D0008A54D0008B7
:10016000A54D0008A54D0008A54D0008A54D0008A7
:10017000A54D0008A54D0008A54D00080000000091
:08018000A54D0008A54D000883
:1001900010B5054C237833B9044B13B10448AFF3C1
:1001A00000800123237010BD88090020000000009A
:1001B0009035010808B5034B1BB103490348AFF361
:1001C000008008BD000000008C0900209035010867
:1001D000034613F8012B002AFBD1181A0138704787
:1001E00001F0FF01102A2BDB10F0070F08D010F8E8
:1001F000013B013A8B422DD010F0070F42B3F6D1EC
:10020000F0B441EA012141EA014122F007047FF004
:1002100000070023F0E80256083C85EA010586EA5B
:10022000010685FA47F5A3FA87F586FA47F6A5FA97
:1002300087F68EB9EED1F0BC01F0FF0102F00702A3
:1002400032B110F8013B013A83EA010313B1F8D14E
:100250000020704701387047002D06BF354603382F
:10026000073815F0010F07D1013015F4807F02BF68
:10027000013015F4C03F0130F0BC0138704700BFB9
:1002800053B94AB9002908BF00281CBF4FF0FF31FD
:100290004FF0FF3000F088B9ADF1080C6DE904CEE5
:1002A00000F006F8DDF804E0DDE9022304B0704751
:1002B0002DE9F047089D8E4604468846002B4AD11A
:1002C0008A42174662D9B2FA82F64EB1C6F12003CD
:1002D00001FA06F820FA03F3B74043EA0808B440ED
:1002E0004FEA174E1FFA87FCB8FBFEF1230C0EFBFA
:1002F000118843EA084301FB0CF29A4209D9FB1822
:1003000001F1FF3080F0EA809A4240F2E780023942
:100310003B449A1AA3B2B2FBFEF00EFB102243EA52
:10032000024300FB0CFC9C4509D9FB1800F1FF328D
:1003300080F0D6809C4540F2D3803B44023840EAAE
:100340000140A3EB0C0300211DB1F3400022C5E9DD
:100350000032BDE8F0878B4205D90DB1C5E9000137
:1003600000210846F5E7B3FA83F1002946D1734529
:1003700002D3824200F20581841A6EEB030201204F
:100380009046002DE5D0C5E90048E2E7002A00F0DC
:100390009080B2FA82F6002E40F0A4808A1A030CF4
:1003A0004FEA174E80B2BCB20121B2FBFEFC0EFB3D
:1003B0001C2243EA024304FB0CF29A4207D9FB18C1
:1003C0000CF1FF3802D29A4200F2E080C4469B1A38
:1003D000B3FBFEF20EFB123340EA034302FB04F4CC
:1003E0009C4207D9FB1802F1FF3002D29C4200F276
:1003F000CA8002461B1B42EA0C40A5E7C1F1200659
:100400008B4022FA06F71F430EFA01F420FA06F396
:100410002EFA06FE4FEA1749234300FA01F81FFAA5
:1004200087FCBEFBF9F01C0C09FB10EE44EA0E44FD
:1004300000FB0CFEA64502FA01F209D93C1900F1B5
:10044000FF3A80F09C80A64540F2998002383C44F7
:10045000A4EB0E041FFA83FEB4FBF9F309FB13446B
:100460004EEA044403FB0CFCA44508D93C1903F1F3
:10047000FF3E80F08280A4457FD9023B3C4443EAA2
:100480000040A4EB0C04A0FB02EC64457346E1467B
:1004900062D35FD05DB1B8EB030264EB090404FAE8
:1004A00006F622FA01F31E43CC40C5E900640021A0
:1004B0004FE7B1FBF2FC010C41EA0E4180B240EA89
:1004C00001423B4638463C46B846BE462026B1FB74
:1004D000F7F1A2EB080241EA0C4166E7014618E792
:1004E00010462CE7C6F120022EFA02F3B740B140C5
:1004F00020FA02F24FEA174E0A43B3FBFEF8BCB2F1
:100500000EFB1833110C41EA034108FB04F9B0401B
:1005100089454FEA104380B23ED9791808F1FF3C73
:1005200001D289451FD8A1EB0901B1FBFEF909FBF6
:1005300004F80EFB191192B242EA0142424529D257
:10054000BA1809F1FF31C4D24245C2D2A9F1020161
:100550003A44BEE7F0459DD2BEEB02036CEB070CBC
:100560000138E14696E7A7EB09094944A8F1020CD6
:10057000B1FBFEF909FB04F8DBE773467FE7504661
:1005800066E70846FDE63B44023A33E7ACF1020C6D
:100590003B441CE749469CE7A1EB0901C446B1FB7B
:1005A000FEF909FB04F8C4E7704700BF80B483B0CC
:1005B00000AF0346FB71FB792A2B00F2AF8001A24A
:1005C00052F823F071060008750600087906000845
:1005D0007D060008810600088506000889060008D7
:1005E0008D06000891060008950600089906000887
:1005F0009D060008A1060008A5060008A906000837
:10060000AD060008B1060008B5060008B9060008E6
:10061000BD060008C1060008C5060008C906000896
:10062000CD060008D1060008D5060008D906000846
:10063000DD060008E1060008E5060008E9060008F6
:10064000ED060008F1060008F5060008F9060008A6
:10065000FD06000801070008050700080907000853
:100660000D07000811070008150700081907000802
:100670002E4B54E02E4B52E02E4B50E02E4B4EE0D2
:100680002E4B4CE02E4B4AE02E4B48E02E4B46E0E2
:100690002E4B44E02E4B42E02E4B40E02E4B3EE0F2
:1006A0002E4B3CE02E4B3AE02E4B38E02E4B36E002
:1006B0002E4B34E02E4B32E02E4B30E02E4B2EE012
:1006C0002E4B2CE02E4B2AE02E4B28E02E4B26E022
:1006D0002E4B24E02E4B22E02E4B20E02E4B1EE032
:1006E0002E4B1CE02E4B1AE02E4B18E02E4B16E042
:1006F0002E4B14E02E4B12E02E4B10E02E4B0EE052
:100700002E4B0CE02E4B0AE02E4B08E02E4B06E061
:100710002E4B04E02E4B02E02E4B00E02E4B1846F1
:100720000C37BD465DF8047B704700BF6837010891
:10073000703701087C3701088837010890370108B5
:1007400098370108A4370108B0370108BC37010801
:10075000C8370108D4370108E0370108EC37010831
:10076000F837010804380108083801081038010872
:10077000143801081C380108243801083C380108E5
:1007800044380108483801084C380108503801083D
:1007900054380108583801086438010870380108D5
:1007A0007C380108843801088C3801089838010821
:1007B000A4380108AC380108B4380108C838010869
:1007C000D4380108E0380108EC380108F83801088D
:1007D000FC380108083901081039010880B483B0D9
:1007E00000AF0346FB71FB79042B17D801A252F826
:1007F00023F000BF090800080D08000811080008D0
:100800001508000819080008084B08E0084B06E026
:10081000084B04E0084B02E0084B00E0084B184688
:100820000C37BD465DF8047B704700BF18390108DE
:100830002039010828390108303901083439010804
:100840001039010880B582B000AF786004221B49DE
:10085000786811F059FE0346002B01D1002328E0EF
:1008600004221749786811F04FFE0346002B01D18E
:1008700001231EE006221349786811F045FE034665
:10088000002B01D1022314E003220F49786811F0F4
:100890003BFE0346002B01D103230AE003220B4950
:1008A000786811F031FE0346002B01D1042300E0EB
:1008B000052318460837BD4680BD00BF183901081A
:1008C0002039010828390108303901083439010874
:1008D00080B485B000AF7860396005E07B68013393
:1008E0007B603B6801333B607B681B78002B22D028
:1008F0007B681B78FB73FB7B0133234A13441B7813
:1009000003F00303012B03D1FB7B03F1200200E082
:10091000FA7B3B681B78BB73BB7B01331A490B44E2
:100920001B7803F00303012B02D1BB7B203300E0D3
:10093000BB7B9A42D2D07B681B787B737B7B013375
:10094000114A13441B7803F00303012B03D17B7B73
:1009500003F1200200E07A7B3B681B783B733B7B12
:10096000013309490B441B7803F00303012B02D127
:100970003B7B203300E03B7BD31A18461437BD463F
:100980005DF8047B704700BFB03F010880B584B0BC
:1009900000AF786011F08EFE034600221A6007F166
:1009A00008030A221946786811F0E0F9F86011F09E
:1009B00081FE03461B68222B02D14FF0FF3307E074
:1009C000BB687A689A4202D14FF0FF3300E0FB68BF
:1009D00018461037BD4680BD2DE9F047ADF5267DA0
:1009E00002AF07F52473A3F52173186007F524738C
:1009F000A3F52273196007F52473A3F523731A6016
:100A00006B469A4607F52473A3F51E7318464FF4F8
:100A100011731A46002111F05FFD07F52473A3F549
:100A200022731B68002B06D007F52473A3F52373EC
:100A30001B68002B3AD140220021CD4811F04CFD1B
:100A4000CB48FFF7C5FB03461A46C94B1344C94AB6
:100A50001D4614460FCC28606960AA60EB6007CC85
:100A600028616961AA612388A278AB831346AB77BA
:100A7000BF48FFF7ADFB0346BF4A1360BE4B1B6880
:100A80001946BB4802F088F907F52473A3F52173D2
:100A90001A6807F52473A3F51E73104619464FF420
:100AA00011731A4611F033FE02F054B907F524739E
:100AB000A3F523731B68591C0B46013BC7F888320A
:100AC0000023884699464FF000024FF000034FEA9A
:100AD000C90343EA58734FEAC80200230C461D4677
:100AE0004FF000024FF00003EB0043EA5473E200C2
:100AF000CB1DDB08DB00ADEB030D02AB0033C7F809
:100B0000843207F52473A3F5237207F52473A3F544
:100B1000227312681968D7F8840211F0F8FDD7F82B
:100B2000842207F52473A3F523731B681344002262
:100B30001A709249D7F8840211F01AFDC7F88002A2
:100B4000D7F88032002B4ED007F118033F22D7F898
:100B50008012184611F0F8FC07F52473A3F51E73F4
:100B6000002283F83F202CE007F52473A3F51E73C1
:100B7000D3F8403207F1180201339B0113443F229E
:100B8000D7F88012184611F0DFFC07F52473A3F59F
:100B90001E73D3F8403207F52472A2F51E729B0132
:100BA00013447F3300221A7007F52473A3F51E73D4
:100BB000D3F840325A1C07F52473A3F51E73C3F80B
:100BC00040226E49002011F0D3FCC7F88002D7F80C
:100BD0008032002B07D007F52473A3F51E73D3F8DA
:100BE0004032072BC0DD07F1180365491846FFF7AF
:100BF0006FFE0346002B5AD1402200215C4811F0C1
:100C00006BFC5B48FFF7E4FA03461A46584B134463
:100C10005C4A14469C4604F1300E654626460FCECB
:100C200028606960AA60EB6010340CF1100C744508
:100C3000F3D1634622461068186092889A804C4827
:100C4000FFF7C6FA03464C4A13604B4B1B68194624
:100C5000474802F0A1F8052006F05CF84022002188
:100C6000434811F039FC4248FFF7B2FA03461A46EE
:100C70003F4B1344444A1C4615460FCD206061602B
:100C8000A260E36028682061AB88AA79A38213463A
:100C9000A3753748FFF79CFA0346374A1360364B73
:100CA0001B681946324802F077F802F043B807F1A2
:100CB000180336491846FFF70BFE0346002B6BD18D
:100CC000402200212A4811F007FC2948FFF780FA4A
:100CD00003461A46264B13442D4A10681860918823
:100CE000927999809A71002387F88F321BE097F8E8
:100CF0008F3207F1180201339B01134419461C4837
:100D000011F0F2FB1A48FFF763FA03461A46184B34
:100D100013441A491A460B461B88138097F88F32E2
:100D2000013387F88F3297F88F2207F52473A3F5E4
:100D30001E73D3F840329A42D9DB0D48FFF748FAC8
:100D400003461A460A4B134412491A460B461B889F
:100D500013800748FFF73CFA0346074A1360064B27
:100D60001B681946024802F017F801F0E3BF00BF04
:100D7000A409002038390108E40900205839010885
:100D80005C390108643901089C390108B43901084B
:100D9000BC390108C439010807F118038B4918460A
:100DA000FFF796FD0346002B40F08180542387F81F
:100DB0005F32002387F88E3271E0402200218448A0
:100DC00011F08AFB97F88E22824913465B00134488
:100DD000DB000B441B6819467D4811F085FB7C48FD
:100DE000FFF7F6F903461A46794B13447A4A1188FD
:100DF000927819809A7097F88E22764913465B0094
:100E00001344DB000B4414331B781846FFF7CEFB6A
:100E1000034619466E4811F067FB97F88E226D491C
:100E200013465B001344DB000B4404331B68002BA8
:100E300011D16748FFF7CCF903461A46644B1344B7
:100E400066491A460B4603CB1060516019889B789F
:100E5000118193720FE05E48FFF7BAF903461A4614
:100E60005B4B13445E4A1C46134607CB206061600F
:100E7000A2601B7823735648FFF7AAF90346594A24
:100E80001360584B1B681946514801F085FF052037
:100E900005F040FF97F88E32013387F88E3297F8CD
:100EA0008E2297F85F329A4287D301F043BF07F151
:100EB00018034D491846FFF70BFD0346002B40F081
:100EC000248607F52473A3F51E73D3F84032032B51
:100ED00074D0402200213E4811F0FEFA3C48FFF752
:100EE00077F903461A463A4B1344404A14469C4647
:100EF00004F1300E654626460FCE28606960AA6070
:100F0000EB6010340CF1100C7445F3D163462246AB
:100F10001068186092889A802D48FFF759F90346A7
:100F2000304A13602F4B1B681946294801F034FFE3
:100F3000052005F0EFFE40220021254811F0CCFAF3
:100F40002348FFF745F903461A46214B1344284A24
:100F500014469C4604F1200E654626460FCE2860B6
:100F60006960AA60EB6010340CF1100C7445F3D189
:100F700063462246106818609188927999809A7128
:100F80001348FFF725F90346164A1360154B1B68F3
:100F900019460F4801F000FF07F52473A3F52173EC
:100FA0001A6807F52473A3F51E73104619464FF40B
:100FB00011731A4611F0ABFB01F0CCBE542387F835
:100FC0007232002387F88D3200F050BDC839010815
:100FD000A409002000000020D0390108D4390108FC
:100FE000E0390108E4090020F0390108FC39010862
:100FF000343A010897F88D22524913465B00134496
:10100000DB000B441A6807F11803403311461846F9
:10101000FFF75EFC0346002B40F0238597F88D22F6
:10102000484913465B001344DB000B4414331B7820
:10103000002B00F0938097F88D22424913465B0005
:101040001344DB000B4414331B780E2B00F0868016
:1010500097F88D223B4913465B001344DB000B4499
:1010600014331B780F2B79D040220021364811F021
:1010700033FA3548FFF7ACF803461A46324B1344AF
:10108000324A1C46134607CB20606160A26097F885
:101090008D222C4913465B001344DB000B441B6874
:1010A0001946294811F020FA2748FFF791F803461E
:1010B0001A46254B1344264A1D4614460FCC286079
:1010C0006960AA60EB6023882B8297F88D221D4906
:1010D00013465B001344DB000B4414331B781846A3
:1010E000FFF764FA03461946174811F0FDF9164850
:1010F000FFF76EF803461A46134B1344154A11883E
:10110000927819809A701048FFF762F80346124AE5
:101110001360114B1B6819460B4801F03DFE07F5A3
:101120002473A3F521731A6807F52473A3F51E73BE
:10113000104619464FF411731A4611F0E8FA01F0FF
:1011400009BE00BF00000020A40900205C3A01088D
:10115000683A01087C3A0108E4090020CA4B1B7870
:101160001946CA4A0B465B000B44DB001344143398
:1011700000221A7097F88D22C44913465B0013446D
:10118000DB000B4404331B68002B00F00C8207F1DA
:10119000180380331846FFF7F9FBC7F8640207F11C
:1011A0001803C0331846FFF7F1FBC7F86002D7F801
:1011B000643242F21072934200F28281D7F86432B4
:1011C000002B00F07D81D7F86032642B00F2F180B3
:1011D000AF4B1B68002B07D0AD4B1B68AD4A1268A4
:1011E0001146184602F049FC97F88D22A74913468C
:1011F0005B001344DB000B4404331B68A44A1360F8
:1012000097F88D22A14913465B001344DB000B4481
:1012100008331B689F4A136097F88D229B49134639
:101220005B001344DB000B440C331B689A4A1360C9
:1012300097F88D22954913465B001344DB000B445D
:1012400010331B68954A13608F4A97F88D321370DC
:1012500097F88D228D4913465B001344DB000B4445
:101260000433186897F88D22884913465B001344AD
:10127000DB000B440833196897F88D22834C134622
:101280005B001344DB0023440C331C6897F88D2269
:101290007E4D13465B001344DB002B4410331A6869
:1012A000D7F860320193D7F8643200931346224690
:1012B00002F048FB97F88D22744913465B001344F3
:1012C000DB000B4414330E221A70402200217448B4
:1012D00011F002F97248FEF77BFF03461A46704B85
:1012E0001344704A1D4614460FCC28606960AA60FA
:1012F000EB602388A2782B821346AB7407F11803A6
:1013000040331946664811F0EFF86548FEF760FF74
:1013100003461A46624B1344634A11889278198037
:101320009A7007F11803803319465D4811F0DCF814
:101330005B48FEF74DFF03461A46594B13445B4A80
:101340001068186092889A8007F11803C033194614
:10135000534811F0C9F85248FEF73AFF03461A46BF
:101360004F4B1344524A1C46134607CB2060616022
:10137000A2601B88A3814A48FEF72AFF03464D4A14
:1013800013604C4B1B681946454801F005FD07F5F5
:101390002473A3F521731A6807F52473A3F51E734C
:1013A000104619464FF411731A4611F0B0F901F0C6
:1013B000D1BC402200213A4811F08EF83848FEF79F
:1013C00007FF03461A46364B13443B4A14469C46D5
:1013D00004F1300E654626460FCE28606960AA608B
:1013E000EB6010340CF1100C7445F3D163462246C7
:1013F0001068186092889A802948FEF7E9FE034633
:101400002C4A13602B4B1B681946254801F0C4FC7D
:10141000052005F07FFC40220021214811F05CF8F6
:101420001F48FEF7D5FE03461A461D4B1344234AB8
:101430001D4614460FCC28606960AA60EB6007CC9B
:1014400028616961AA612388AB831548FEF7C0FE55
:101450000346184A1360174B1B681946104801F0E1
:101460009BFC07F52473A3F521731A6807F5247311
:10147000A3F51E73104619464FF411731A4611F066
:1014800046F901F067BC00BF440F002000000020B7
:10149000340F0020380F00203C0F0020400F0020A8
:1014A000A4090020803A0108D0390108943A0108C3
:1014B0009C3A0108E4090020FC390108AC3A010813
:1014C00040220021744811F007F87348FEF780FEAF
:1014D00003461A46704B1344704A14469C4604F166
:1014E000300E654626460FCE28606960AA60EB6024
:1014F00010340CF1100C7445F3D163462246106889
:10150000186092889A806448FEF762FE0346644A37
:101510001360634B1B6819465F4801F03DFC0520D2
:1015200005F0F8FB402200215B4810F0D5FF5A4837
:10153000FEF74EFE03461A46574B1344594A1446CB
:101540009C4604F1200E654626460FCE2860696051
:10155000AA60EB6010340CF1100C7445F3D16346B3
:1015600022461188927819809A704B48FEF730FE17
:1015700003464B4A13604A4B1B681946464801F024
:101580000BFC07F52473A3F521731A6807F5247380
:10159000A3F51E73104619464FF411731A4611F045
:1015A000B6F801F0D7BB07F1180380331846FFF7F0
:1015B000EDF9C7F86C0207F11803C0331846FFF7BE
:1015C000E5F9C7F86802D7F86C3242F2107293421C
:1015D00000F2D481D7F86C32002B00F0CF81D7F81D
:1015E0006832642B00F242812F4B1B682F4A9342D2
:1015F0006CD12F4B2F4A1A6097F88D222E49134633
:101600005B001344DB000B4408331B682B4A136058
:1016100097F88D22284913465B001344DB000B44E6
:101620000C331B68264A136097F88D222249134613
:101630005B001344DB000B4410331B68214A13602A
:10164000214A97F88D321370194B1B68002B04D078
:10165000174B1B68184602F0B6FA97F88D22164908
:1016600013465B001344DB000B440C33196897F8F6
:101670008D22114813465B001344DB0003441033F2
:101680001A68D7F86832DBB20093D7F86C32094891
:1016900002F000FA6BE000BFA4090020FC39010849
:1016A000E4090020CC3A0108480F0020340B002048
:1016B000340F00207C0B002000000020380F002099
:1016C0003C0F0020400F0020440F00209C4B9D4AFF
:1016D0001A6097F88D229C4913465B001344DB0087
:1016E0000B4408331B68994A136097F88D2296497A
:1016F00013465B001344DB000B440C331B68944A15
:10170000136097F88D22904913465B001344DB0069
:101710000B4410331B688F4A13608F4A97F88D3241
:101720001370874B1B68002B04D0854B1B68184631
:1017300002F049FA97F88D22834913465B0013445F
:10174000DB000B440C33196897F88D227E48134652
:101750005B001344DB00034410331A68D7F8683287
:10176000DBB20093D7F86C32764802F093F997F821
:101770008D22754913465B001344DB000B44143380
:101780000F221A7040220021744810F0A5FE734801
:10179000FEF71EFD03461A46704B1344704A1D4661
:1017A00014460FCC28606960AA60EB602388A27899
:1017B0002B821346AB7407F1180340331946674870
:1017C00010F092FE6548FEF703FD03461A46634B90
:1017D0001344644A1188927819809A7007F11803AB
:1017E000803319465D4810F07FFE5C48FEF7F0FC40
:1017F00003461A46594B13445B4A10681860928896
:101800009A8007F11803C0331946544810F06CFE53
:101810005248FEF7DDFC03461A46504B1344534A28
:101820001C46134607CB20606160A2601B88A38121
:101830004A48FEF7CDFC03464D4A13604C4B1B68EB
:101840001946464801F0A8FA07F52473A3F5217359
:101850001A6807F52473A3F51E73104619464FF452
:1018600011731A4610F053FF01F074BA40220021A0
:101870003A4810F031FE3948FEF7AAFC03461A46F2
:10188000364B13443B4A14469C4604F1300E6546E1
:1018900026460FCE28606960AA60EB6010340CF118
:1018A000100C7445F3D16346224610681860928884
:1018B0009A802A48FEF78CFC03462D4A13602C4B75
:1018C0001B681946254801F067FA052005F022FA41
:1018D00040220021214810F0FFFD2048FEF778FC4F
:1018E00003461A461D4B1344234A1D4614460FCC8B
:1018F00028606960AA60EB6007CC28616961AA6111
:101900002388AB831548FEF763FC0346184A13602F
:10191000174B1B681946114801F03EFA07F524736E
:10192000A3F521731A6807F52473A3F51E731046F7
:1019300019464FF411731A4610F0E9FE01F00ABA85
:10194000340F0020340B002000000020380F00204E
:101950003C0F0020400F0020440F0020A40900206D
:10196000803A0108D0390108943A0108F03A010898
:10197000E4090020FC390108AC3A010840220021AA
:10198000C94810F0A9FDC848FEF722FC03461A46D4
:10199000C54B1344C54A14469C4604F1300E6546B7
:1019A00026460FCE28606960AA60EB6010340CF107
:1019B000100C7445F3D16346224610681860928873
:1019C0009A80B948FEF704FC0346B94A1360B84B45
:1019D0001B681946B44801F0DFF9052005F09AF9B3
:1019E00040220021B04810F077FDAF48FEF7F0FB31
:1019F00003461A46AC4B1344AE4A14469C4604F1C7
:101A0000200E654626460FCE28606960AA60EB600E
:101A100010340CF1100C7445F3D163462246118842
:101A2000927819809A70A048FEF7D2FB0346A04A2C
:101A300013609F4B1B6819469B4801F0ADF907F5F1
:101A40002473A3F521731A6807F52473A3F51E7395
:101A5000104619464FF411731A4610F058FE01F063
:101A600079B997F88D32013387F88D3297F88D2246
:101A700097F872329A42FFF4BDAA402200218A48A8
:101A800010F02AFD8848FEF7A3FB03461A46864B52
:101A90001344894A1C46134607CB20606160A2604C
:101AA00007F11803403319467F4810F01DFD7E48AA
:101AB000FEF78EFB03461A467B4B13447F4A1C46B7
:101AC000134607CB20606160A2601B88A381764823
:101AD000FEF77EFB0346764A1360754B1B6819467A
:101AE000714801F059F907F52473A3F521731A68B9
:101AF00007F52473A3F51E73104619464FF41173AE
:101B00001A4610F004FE01F025B907F118036C49DC
:101B10001846FEF7DDFE0346002B40F07A8107F5FC
:101B20002473A3F51E73D3F84032012B74D04022E6
:101B300000215D4810F0D0FC5B48FEF749FB0346EE
:101B40001A46594B13445F4A15469C4605F1200E30
:101B500064462E460FCE20606160A260E3601035BF
:101B60000CF1100C7545F3D164462B4607CB206071
:101B70006160A2601A889B78A281A3734A48FEF72D
:101B800027FB03464A4A1360494B1B6819464648DF
:101B900001F002F9052005F0BDF84022002142487D
:101BA00010F09AFC4048FEF713FB03461A463E4BE2
:101BB0001344454A14469C4604F1200E65462646C9
:101BC0000FCE28606960AA60EB6010340CF1100C35
:101BD0007445F3D163462246106818603248FEF718
:101BE000F7FA0346324A1360314B1B6819462E48F8
:101BF00001F0D2F807F52473A3F521731A6807F5ED
:101C00002473A3F51E73104619464FF411731A4638
:101C100010F07DFD01F09EB82C4B1B68002B59D1B4
:101C200040220021204810F057FC1F48FEF7D0FA50
:101C300003461A461C4B1344254A14469C4604F19D
:101C4000200E654626460FCE28606960AA60EB60CC
:101C500010340CF1100C7445F3D16546234607CBC4
:101C600028606960AA601B88AB810F48FEF7B0FA54
:101C700003460F4A13600E4B1B6819460A4801F0D1
:101C80008BF807F52473A3F521731A6807F52473FD
:101C9000A3F51E73104619464FF411731A4610F03F
:101CA00036FD01F057B800BFA4090020FC39010837
:101CB000E4090020CC3A01085C3A0108003B010825
:101CC000103B0108143B0108443B0108400F002071
:101CD000683B010807F11803403391491846FEF7A5
:101CE000F7FD0346002B44D18E4B1B78002B05D10A
:101CF0008D4B1B68184601F05BFF07E08A4B1B68A1
:101D00008A4A12681146184601F0AAFE40220021B4
:101D1000874810F0E1FB8648FEF75AFA03461A4658
:101D2000834B1344834A1C46134607CB20606160F3
:101D3000A2601B7823737E48FEF74AFA03467E4A68
:101D400013607D4B1B681946794801F025F807F5AB
:101D50002473A3F521731A6807F52473A3F51E7382
:101D6000104619464FF411731A4610F0D0FC00F0DB
:101D7000F1BF07F11803403370491846FEF7A8FD7C
:101D80000346002B40F0D687674B1B68002B05D11C
:101D9000654B1B68184601F016FF07E0624B1B6895
:101DA000624A12681146184601F067FE402200217F
:101DB0005F4810F091FB5E48FEF70AFA03461A46A8
:101DC0005B4B13445E4A1C46134607CB20606160A0
:101DD000A2601B7823735648FEF7FAF90346564A69
:101DE0001360554B1B681946514800F0D5FF07F5A5
:101DF0002473A3F521731A6807F52473A3F51E73E2
:101E0000104619464FF411731A4610F080FC00F08A
:101E1000A1BF07F118034B491846FEF759FD0346C9
:101E2000002B40F09D8307F52473A3F51E73D3F8B0
:101E30004032012B6DD0402200213D4810F04CFB78
:101E40003B48FEF7C5F903461A46394B13443E4A50
:101E500014469C4604F1300E654626460FCE286097
:101E60006960AA60EB6010340CF1100C7445F3D17A
:101E70006246234603CB106051601B8813812C48B7
:101E8000FEF7A6F903462C4A13602B4B1B68194634
:101E9000274800F081FF052004F03CFF402200218C
:101EA000234810F019FB2248FEF792F903461A4620
:101EB0001F4B1344254A1D4614460FCC2860696009
:101EC000AA60EB6007CC28616961AA612388A278C7
:101ED000AB831346AB771648FEF77AF90346164AEA
:101EE0001360154B1B681946114800F055FF07F5A4
:101EF0002473A3F521731A6807F52473A3F51E73E1
:101F0000104619464FF411731A4610F000FC00F009
:101F100021BF542387F87332002387F88C32B2E252
:101F2000983B0108450F0020340F0020380F002097
:101F3000A4090020A03B0108E4090020B03B0108EF
:101F4000B83B0108C83B0108D83B0108143C010814
:101F500097F88C22C24913465B001344DB000B4404
:101F60001A6807F11803403311461846FEF7B0FC13
:101F70000346002B40F0828297F88C22B849134622
:101F80005B001344DB000B4414331B78002B00F080
:101F9000858097F88C22B24913465B001344DB001E
:101FA0000B4414331B78102B78D097F88C22AC4953
:101FB00013465B001344DB000B4414331B78112BD6
:101FC0006CD040220021A74810F086FAA548FEF701
:101FD000FFF803461A46A34B1344A34A1C46134674
:101FE00007CB20606160A26097F88C229C49134661
:101FF0005B001344DB000B441B681946994810F042
:1020000073FA9848FEF7E4F803461A46954B1344D2
:10201000964A1D4614460FCC28606960AA60EB60A2
:1020200023882B8297F88C228D4913465B0013443A
:10203000DB000B4414331B781846FEF7B7FA03464F
:102040001946884810F050FA8648FEF7C1F8034652
:102050001A46844B1344864A1188927819809A70E4
:102060008048FEF7B5F80346824A1360814B1B682F
:1020700019467C4800F090FE07F52473A3F5217300
:102080001A6807F52473A3F51E73104619464FF41A
:1020900011731A4610F03BFB00F05CBE764B1B78C8
:1020A00019466F4A0B465B000B44DB0013441433A4
:1020B00000221A7097F88C22694913465B0013447A
:1020C000DB000B4404331B68002B00F0E58097F81D
:1020D0008C22634913465B001344DB000B4404333A
:1020E0001A68664B1B689A4200F0D68097F88C22DB
:1020F0005B4913465B001344DB000B440433186850
:1021000097F88C22564913465B001344DB000B44BE
:102110000833196897F88C22514C13465B0013441E
:10212000DB0023440C331C6897F88C224C4D13467B
:102130005B001344DB002B4410331B68224601F084
:102140004DFD97F88C22464913465B001344DB0093
:102150000B44143310221A7097F88C22404913460E
:102160005B001344DB000B4404331B68444A1360D8
:1021700097F88C223A4913465B001344DB000B446A
:1021800008331B683F4A136097F88C223449134682
:102190005B001344DB000B440C331B683A4A1360AA
:1021A00097F88C222E4913465B001344DB000B4446
:1021B00010331B68354A13602F4A97F88C3213701E
:1021C00040220021274810F087F92648FEF700F842
:1021D00003461A46234B13442D4A1C4615460FCD81
:1021E00020606160A260E36028682061AB88AA7902
:1021F000A3821346A37507F1180340331946194803
:1022000010F072F91748FDF7E3FF03461A46154B25
:102210001344204A1C46134607CB20606160A2602D
:102220001B7823730F48FDF7D3FF0346114A136051
:10223000104B1B6819460B4800F0AEFD07F52473E0
:10224000A3F521731A6807F52473A3F51E731046CE
:1022500019464FF411731A4610F059FA00F07ABD7E
:1022600000000020A40900205C3A0108683A010837
:102270007C3A0108E4090020580F0020340F0020A8
:10228000480F00204C0F0020500F0020540F00205A
:10229000343C01084C3C0108A24B1B68A24A934203
:1022A0004ED1A24BA24A1A6097F88C22A14913463C
:1022B0005B001344DB000B4408331B689E4A136029
:1022C00097F88C229B4913465B001344DB000B44B8
:1022D0000C331B68994A136097F88C229549134672
:1022E0005B001344DB000B4410331B68944A1360FB
:1022F000944A97F88C32137097F88C228D491346C4
:102300005B001344DB000B440C33196897F88C22F4
:10231000884813465B001344DB00034410331B68FA
:102320001A46834801F038FE97F88C2281491346FB
:102330005B001344DB000B44143311221A704DE090
:102340007A4B794A1A6097F88C227A4913465B00D7
:102350001344DB000B4408331B68774A136097F87B
:102360008C22744913465B001344DB000B440C338E
:102370001B68724A136097F88C226E4913465B0003
:102380001344DB000B4410331B686D4A13606D4A25
:1023900097F88C32137097F88C22664913465B00CD
:1023A0001344DB000B440C33196897F88C22614806
:1023B00013465B001344DB00034410331B681A46CA
:1023C000594801F0E9FD97F88C225A4913465B0001
:1023D0001344DB000B44143311221A7040220021F5
:1023E000594810F079F85848FDF7F2FE03461A46AE
:1023F000554B1344554A1C4615460FCD206061606D
:10240000A260E36028682061AB88AA79A3821346A2
:10241000A37507F11803403319464B4810F064F8D0
:102420004948FDF7D5FE03461A46474B1344484A30
:102430001C46134607CB20606160A2601B782373A3
:102440004148FDF7C5FE0346424A1360414B1B68F5
:1024500019463D4800F0A0FC07F52473A3F521734D
:102460001A6807F52473A3F51E73104619464FF436
:1024700011731A4610F04BF900F06CBC97F88C32CF
:10248000013387F88C3297F88C2297F873329A428E
:10249000FFF45EAD402200212B4810F01DF82A48C1
:1024A000FDF796FE03461A46274B13442A4A1C465C
:1024B000134607CB20606160A26007F11803403328
:1024C0001946214810F010F81F48FDF781FE034619
:1024D0001A461D4B1344214A1C46134607CB206065
:1024E0006160A2601B88A3811748FDF771FE034657
:1024F000184A1360174B1B681946134800F04CFC30
:1025000007F52473A3F521731A6807F52473A3F55F
:102510001E73104619464FF411731A4610F0F7F85F
:1025200000F018BC340F0020340B0020480F0020AE
:102530007C0B0020000000204C0F0020500F0020DA
:10254000540F0020580F0020A4090020343C01083B
:102550005C3C0108E40900205C3A0108003B0108EA
:1025600007F11803C2491846FEF7B2F90346002BDB
:1025700040F0328307F52473A3F51E73D3F840327D
:10258000022B78D007F52473A3F51E73D3F84032DD
:10259000032B70D040220021B6480FF09DFFB548B4
:1025A000FDF716FE03461A46B24B1344B24A1446D0
:1025B0009C4604F1300E654626460FCE28606960C1
:1025C000AA60EB6010340CF1100C7445F3D1624634
:1025D000234603CB106051601B881381A548FDF78B
:1025E000F7FD0346A54A1360A44B1B681946A14892
:1025F00000F0D2FB052004F08DFB402200219D4815
:102600000FF06AFF9B48FDF7E3FD03461A46994B1E
:1026100013449B4A14469C4604F1300E65462646F8
:102620000FCE28606960AA60EB6010340CF1100CCA
:102630007445F3D1624623461B8813808D48FDF70D
:10264000C7FD03468D4A13608C4B1B6819468948A9
:1026500000F0A2FB07F52473A3F521731A6807F5B0
:102660002473A3F51E73104619464FF411731A46CE
:1026700010F04DF86EE307F1180340331846FEF7EB
:1026800085F9C7F87C02D7F87C32002B03D0D7F845
:102690007C32642B67D94022002176480FF01CFF62
:1026A0007448FDF795FD03461A46724B1344724A6F
:1026B00014469C4604F1300E654626460FCE28602F
:1026C0006960AA60EB6010340CF1100C7445F3D112
:1026D0006246234603CB106051601B881381654816
:1026E000FDF776FD0346654A1360644B1B68194687
:1026F000604800F051FB052004F00CFB4022002153
:102700005C480FF0E9FE5B48FDF762FD03461A46A0
:10271000584B13445B4A1D4614460FCC2860696031
:10272000AA60EB6007CC28616961AA615148FDF796
:102730004FFD0346514A1360504B1B6819464D48E4
:1027400000F02AFB07F52473A3F521731A6807F537
:102750002473A3F51E73104619464FF411731A46DD
:102760000FF0D5FFF6E207F1180380331846FEF7A5
:1027700069F8034687F87B3297F87B32052B40F0E7
:102780008580402200213B480FF0A6FE3948FDF726
:102790001FFD03461A46374B1344374A14469C46DE
:1027A00004F1300E654626460FCE28606960AA60A7
:1027B000EB6010340CF1100C7445F3D162462346E3
:1027C00003CB106051601B8813812A48FDF700FD80
:1027D00003462A4A1360294B1B681946254800F016
:1027E000DBFA052004F096FA4022002121480FF080
:1027F00073FE2048FDF7ECFC03461A461D4B1344BC
:10280000214A15469C4605F1200E64462E460FCE01
:1028100020606160A260E36010350CF1100C75451A
:10282000F3D164462B4607CB20606160A2601A8812
:102830009B78A281A3730F48FDF7CAFC03460F4A99
:1028400013600E4B1B6819460A4800F0A5FA07F5FD
:102850002473A3F521731A6807F52473A3F51E7377
:10286000104619464FF411731A460FF050FF71E2EB
:102870006C3C0108A40900207C3C0108E40900200C
:10288000B83C0108EC3C0108083D010807F11803B9
:10289000C0331846FEF77AF8C7F87402D7F87432D6
:1028A000092B04D9D7F87432B3F57A7F78D907F5B4
:1028B0002473A3F51E73D3F84032032B70D140224A
:1028C0000021B9480FF008FEB748FDF781FC034628
:1028D0001A46B54B1344B54A14469C4604F1300ED3
:1028E000654626460FCE28606960AA60EB6010340A
:1028F0000CF1100C7445F3D16246234603CB1060F3
:1029000051601B881381A848FDF762FC0346A84A62
:102910001360A74B1B681946A34800F03DFA052039
:1029200004F0F8F9402200219F480FF0D5FD9E48A1
:10293000FDF74EFC03461A469B4B13449D4A144632
:102940009C4604F1200E654626460FCE286069603D
:10295000AA60EB6010340CF1100C7445F3D16246A0
:1029600023461B8813809048FDF732FC0346904AAB
:1029700013608F4B1B6819468B4800F00DFA07F562
:102980002473A3F521731A6807F52473A3F51E7346
:10299000104619464FF411731A460FF0B8FED9E1EC
:1029A00007F52473A3F51E73D3F84032032B40F0D0
:1029B0008780814B00221A70D7F87C32DAB27F4BC5
:1029C0001A707F4A97F87B321370D7F874329AB234
:1029D0007C4B1A804022002173480FF07DFD724825
:1029E000FDF7F6FB03461A466F4B1344764A1D4625
:1029F00014460FCC28606960AA60EB6020682861EB
:102A000023792B7507F118034033194666480FF0F8
:102A10006BFD6548FDF7DCFB03461A46624B134429
:102A20006A491A460B4603CB106051601B8813811C
:102A300007F11803803319465B480FF055FD5A48DB
:102A4000FDF7C6FB03461A46574B134460491A4626
:102A50000B4603CB1060516019889B7811819372EB
:102A600007F11803C03319464F480FF03DFD4E489B
:102A7000FDF7AEFB03461A464B4B134455491A4625
:102A80000B461B8813804848FDF7A2FB0346484AC3
:102A90001360474B1B681946434800F07DF907F562
:102AA0002473A3F521731A6807F52473A3F51E7325
:102AB000104619464FF411731A460FF028FE49E1EB
:102AC00007F52473A3F51E73D3F84032022B40F0B0
:102AD0003181394B00221A70D7F87C32DAB2374B89
:102AE0001A70374A97F87B321370402200212E4823
:102AF0000FF0F2FC2C48FDF76BFB03461A462A4BFD
:102B00001344314A1D4614460FCC28606960AA6000
:102B1000EB602068286123792B7507F11803403397
:102B2000194621480FF0E0FC1F48FDF751FB034612
:102B30001A461D4B134425491A460B4603CB106019
:102B400051601B88138107F118038033194616481A
:102B50000FF0CAFC1448FDF73BFB03461A46124B24
:102B600013441C491A460B461B8813800E48FDF778
:102B70002FFB03460E4A13600D4B1B6819460A488B
:102B800000F00AF907F52473A3F521731A6807F515
:102B90002473A3F51E73104619464FF411731A4699
:102BA0000FF0B5FDD6E000BFA40900207C3C010871
:102BB000E4090020383D0108EC100020E007002067
:102BC000ED100020E20700205C3D0108743D010883
:102BD000803D0108C439010807F11803634918460C
:102BE000FDF776FE0346002B7FD14022002160488E
:102BF0000FF072FC5E48FDF7EBFA03461A465C4B99
:102C000013445C4A1068186092889A8001F076F943
:102C1000024607F11003584918460FF063FB07F10D
:102C20001003194652480FF05FFC5148FDF7D0FAE7
:102C300003461A464E4B134450491A460B4603CBE3
:102C4000106051601B7813724D4B1B781A4607F1C8
:102C50001003494918460FF045FB07F110031946C8
:102C600043480FF041FC4248FDF7B2FA03461A46CA
:102C70003F4B134443491A460B4603CB1060516047
:102C80001B881381404B1B781846FDF7A7FD0346B0
:102C9000194637480FF028FC3548FDF799FA0346E6
:102CA0001A46334B1344394A1188927819809A7026
:102CB0002F48FDF78DFA0346354A1360344B1B68E5
:102CC00019462B4800F068F807F52473A3F5217323
:102CD0001A6807F52473A3F51E73104619464FF4BE
:102CE00011731A460FF013FD34E0402200212048F2
:102CF0000FF0F2FB1E48FDF76BFA03461A461C4B19
:102D00001344244A1D4614460FCC28606960AA600B
:102D1000EB6003CC2861696123782B761448FDF7BA
:102D200057FA03461A4A1360194B1B681946104894
:102D300000F032F807F52473A3F521731A6807F53C
:102D40002473A3F51E73104619464FF411731A46E7
:102D50000FF0DDFCD54607F52473A3F52173186841
:102D600007F52477BD46BDE8F08700BF8C3D01081C
:102D7000A4090020943D01089C3D0108A03D0108E4
:102D8000E0070020743D0108ED100020AC3D010873
:102D9000E4090020B03D010880B582B000AF786042
:102DA0003960124B1B78012B06D13B689BB2194648
:102DB00078680EF003FB15E00C4B1B78022B07D153
:102DC0003B689BB21A467968094809F0BFFD09E0E3
:102DD000064B1B78032B05D13B689BB219467868DC
:102DE00000F062FD00BF0837BD4680BD1C0E00200C
:102DF000740D002080B5ADF5127D00AF03F018FF13
:102E000000F078F800F03EFC00F01CFC00F0DCF86C
:102E100000F008F900F036F900F06AF900F09EF9C8
:102E200000F0ECF900F036FA00F082FA00F0CEFA89
:102E300000F01AFB00F068FB00F0A0FB00F0D8FBEC
:102E40000EF0FEF9224B1B68DA68214B1B6842F03A
:102E50001002DA6040221F491D4809F0ADFD03F061
:102E6000F1FD002341F690720221002002F09EFA4B
:102E700000F032FD184B1B78012B0AD1174B1A6852
:102E80003B4617491846FDF7A7FD134B00221A7061
:102E9000EEE7114B1B78022B0AD1124B1A683B4606
:102EA00011491846FDF798FD0B4B00221A70DFE719
:102EB000094B1B78032BDBD10C4B1B881A463B4676
:102EC0000B491846FDF788FD034B00221A70CFE727
:102ED000740D0020640E00201C0E0020600E0020E7
:102EE000200E0020E40E0020A40E0020280F002059
:102EF000E80E002080B594B000AF07F12003302227
:102F0000002118460FF0E8FA07F10C0300221A60BE
:102F10005A609A60DA601A610023BB60284B1B6C10
:102F2000274A43F080531364254B1B6C03F08053F6
:102F3000BB60BB6800237B60224B1B68214A43F4C3
:102F4000804313601F4B1B6803F480437B607B68E6
:102F500001233B624FF480337B620223BB634FF457
:102F60008003FB6308233B644FF4A8737B64022354
:102F7000BB640723FB6407F12003184606F004FE38
:102F80000346002B01D001F0CBF90F23FB60022395
:102F90003B6100237B614FF4A053BB614FF4A0530E
:102FA000FB6107F10C030521184607F065F803469D
:102FB000002B01D001F0B4F900BF5037BD4680BDF1
:102FC000003802400070004080B500AF124B134A39
:102FD0001A60114B124A5A600F4B00229A600E4B36
:102FE0000022DA600C4B4FF480421A610A4B002237
:102FF0005A61094B00229A61074B0022DA61064BA5
:1030000000221A62044804F08BFD0346002B01D015
:1030100001F086F900BF80BDE8090020005400409F
:10302000A086010080B500AF134B144A1A60124B02
:103030004FF400725A60104B00229A600E4B00222F
:10304000DA600D4B4FF400721A610B4B0C4A5A6157
:10305000094B00229A61084B0022DA61064B0022DC
:103060001A62054804F0A0FE0346002B01D001F0CF
:1030700057F900BF80BD00BF3C0A0020003C004063
:103080000077010080B500AF174B184A1A60164B45
:103090004FF482725A60144B00229A60124B002245
:1030A000DA60114B00221A610F4B00225A610E4B5D
:1030B0004FF400729A610C4B0022DA610A4B002235
:1030C0001A62094B00225A62074B00229A62064B91
:1030D0000A22DA62044807F031FB0346002B01D0D4
:1030E00001F01EF900BF80BD840A002000300140BD
:1030F00080B500AF174B184A1A60164B4FF4827216
:103100005A60144B00229A60124B0022DA60114B75
:1031100000221A610F4B00225A610E4B4FF40072CD
:103120009A610C4B0022DA610A4B00221A62094BA9
:1031300000225A62074B00229A62064B0A22DA6288
:10314000044807F0FBFA0346002B01D001F0E8F831
:1031500000BF80BDDC0A00200038004080B586B08A
:1031600000AF07F1080300221A605A609A60DA6023
:103170003B4600221A605A601E4B1F4A1A601D4BC4
:1031800000225A601B4B00229A601A4B4FF6FF72C6
:10319000DA60184B00221A61164B00225A61154B57
:1031A00000229A61134807F021FF0346002B01D04B
:1031B00001F0B6F84FF48053BB6007F108031946DD
:1031C0000C4808F073FD0346002B01D001F0A8F86D
:1031D00000233B6000237B603B461946054809F00D
:1031E000D5FA0346002B01D001F09AF800BF18373A
:1031F000BD4680BD340B00200000014080B586B084
:1032000000AF07F1080300221A605A609A60DA6082
:103210003B4600221A605A601D4B4FF080421A60F4
:103220001B4B00225A601A4B00229A60184B4FF039
:10323000FF32DA60164B00221A61154B00229A61A8
:10324000134807F0D3FE0346002B01D001F068F8C5
:103250004FF48053BB6007F1080319460C4808F08F
:1032600025FD0346002B01D001F05AF800233B60F6
:1032700000237B603B461946054809F087FA034660
:10328000002B01D001F04CF800BF1837BD4680BDBF
:103290007C0B002080B586B000AF07F10803002248
:1032A0001A605A609A60DA603B4600221A605A60DF
:1032B0001D4B1E4A1A601C4B00225A601A4B0022FA
:1032C0009A60194B4FF6FF72DA60174B00221A61B1
:1032D000154B00229A61144807F088FE0346002B24
:1032E00001D001F01DF84FF48053BB6007F10803D3
:1032F00019460D4808F0DAFC0346002B01D001F016
:103300000FF800233B6000237B603B4619460648CC
:1033100009F03CFA0346002B01D001F001F800BF90
:103320001837BD4680BD00BFC40B0020000400401C
:1033300080B586B000AF07F1080300221A605A601A
:103340009A60DA603B4600221A605A601D4B1E4AA2
:103350001A601C4B00225A601A4B00229A60194BCB
:103360004FF6FF72DA60174B00221A61154B0022EC
:103370009A61144807F03AFE0346002B01D000F092
:10338000CFFF4FF48053BB6007F1080319460D4887
:1033900008F08CFC0346002B01D000F0C1FF002395
:1033A0003B6000237B603B461946064809F0EEF976
:1033B0000346002B01D000F0B3FF00BF1837BD4615
:1033C00080BD00BF0C0C00200008004080B586B016
:1033D00000AF07F1080300221A605A609A60DA60B1
:1033E0003B4600221A605A601D4B1E4A1A601C4B55
:1033F00000225A601A4B00229A60194B4FF0FF329C
:10340000DA60174B00221A61154B00229A611448AA
:1034100007F0ECFD0346002B01D000F081FF4FF4D4
:103420008053BB6007F1080319460D4808F03EFCC5
:103430000346002B01D000F073FF00233B60002304
:103440007B603B461946064809F0A0F90346002B6D
:1034500001D000F065FF00BF1837BD4680BD00BF3A
:10346000540C0020000C004080B586B000AF07F17E
:10347000080300221A605A609A60DA603B46002214
:103480001A605A601E4B1F4A1A601D4B00225A6078
:103490001B4B00229A601A4B4FF6FF72DA60184BF2
:1034A00000221A61164B00225A61154B00229A61C4
:1034B000134807F09BFD0346002B01D000F030FFBE
:1034C0004FF48053BB6007F1080319460C4808F01D
:1034D000EDFB0346002B01D000F022FF00233B60F0
:1034E00000237B603B461946054809F04FF9034627
:1034F000002B01D000F014FF00BF1837BD4680BD7F
:103500009C0C00200004014080B584B000AF3B4615
:1035100000221A605A609A60DA60164B164A1A60E6
:10352000144B00225A60134B00229A60114B4FF645
:10353000FF72DA600F4B00221A610E4B00229A6173
:103540000C4807F053FD0346002B01D000F0E8FEC5
:103550004FF480533B603B461946064808F0A6FBF3
:103560000346002B01D000F0DBFE00BF1037BD4644
:1035700080BD00BFE40C00200040014080B584B055
:1035800000AF3B4600221A605A609A60DA60164B20
:10359000164A1A60144B00225A60134B00229A609C
:1035A000114B4FF6FF72DA600F4B00221A610E4B7F
:1035B00000229A610C4807F019FD0346002B01D048
:1035C00000F0AEFE4FF480533B603B461946064880
:1035D00008F06CFB0346002B01D000F0A1FE00BFF9
:1035E0001037BD4680BD00BF2C0D002000180040E4
:1035F00080B500AF114B124A1A60104B4FF4E13204
:103600005A600E4B00229A600C4B0022DA600B4B82
:1036100000221A61094B0C225A61084B00229A6160
:10362000064B0022DA61054809F040F90346002BF9
:1036300001D000F075FE00BF80BD00BF740D0020FA
:103640000044004080B582B000AF00237B600C4B8B
:103650001B6B0B4A43F400131363094B1B6B03F4FE
:1036600000137B607B6800220021102003F051FCD6
:10367000102003F06AFC00BF0837BD4680BD00BFC4
:103680000038024080B58CB000AF07F11C03002267
:103690001A605A609A60DA601A610023BB617C4B41
:1036A0001B6B7B4A43F010031363794B1B6B03F0D6
:1036B0001003BB61BB6900237B61754B1B6B744AB4
:1036C00043F004031363724B1B6B03F004037B6131
:1036D0007B6900233B616E4B1B6B6D4A43F080039B
:1036E00013636B4B1B6B03F080033B613B6900234F
:1036F000FB60674B1B6B664A43F001031363644B2B
:103700001B6B03F00103FB60FB680023BB60604B95
:103710001B6B5F4A43F0020313635D4B1B6B03F0AB
:103720000203BB60BB6800237B60594B1B6B584A8C
:1037300043F008031363564B1B6B03F008037B60D5
:103740007B6800220821534804F0B8F901220121C6
:10375000514804F0B3F900224FF4A0414F4804F05F
:10376000ADF900224FF210014D4804F0A7F90823EB
:10377000FB6101233B6200237B620023BB6207F1F4
:103780001C031946434803F0FDFF0123FB6101239D
:103790003B6200237B620023BB6207F11C031946D6
:1037A0003D4803F0EFFF0823FB6102233B62002347
:1037B0007B620023BB620523FB6207F11C031946F1
:1037C000354803F0DFFF0123FB614FF490133B62A8
:1037D00000237B6207F11C031946324803F0D2FF35
:1037E0000423FB6100233B6200237B6207F11C037F
:1037F00019462A4803F0C6FF4FF48063FB61022399
:103800003B6200237B620023BB620523FB6207F15E
:103810001C031946214803F0B5FF4FF4A043FB6198
:1038200001233B6200237B620023BB6207F11C0380
:1038300019461A4803F0A6FF4FF21003FB6101235B
:103840003B6200237B620023BB6207F11C03194625
:10385000134803F097FF2023FB6100233B62002302
:103860007B6207F11C0319460D4803F08BFF02230E
:10387000FB614FF490133B6200237B6207F11C0352
:103880001946044803F07EFF00BF3037BD4680BDB7
:1038900000380240001002400008024000040240CC
:1038A000000C02400000024080B584B002AF786096
:1038B0000B467B80064B1B887A880093054B796802
:1038C000002001F015FF00BF0837BD4680BD00BFD6
:1038D000300F00202C0F002080B584B002AF0023F1
:1038E000FB804FF4427001F07BFA0346222B1BD180
:1038F000002001F018FC0346FB80FB88002B13D04E
:10390000FB88402B01D94023FB80FA88084B0093A9
:10391000084B0949002002F097F803469AB2074B7A
:103920001A80074B03221A7000BF0837BD4680BDBE
:10393000300F00202C0F0020E80E0020280F002060
:103940001C0E002080B594B000AFF860B9607A60BA
:103950003B6007F12C0300221A605A609A60DA601B
:103960001A613B68FB6202233B630223BB6307F1DE
:103970002C031946786803F005FF364B3B6400239F
:10398000FB6413E0FB6C0133BA6D02FB03F33A6C8A
:10399000B2FBF3F3013BBB64BB6CB3F5803F02D2D7
:1039A000BB6C002B07D1FB6C0133FB64FB6CB3F5E4
:1039B000803FE7D300E000BFFB6CB3F5803F03D24C
:1039C000BB6CB3F5803F03D30023FB640123BB64CE
:1039D000FB6D642B02D1BB6C7B6408E0BB6CFA6DA1
:1039E00002FB03F31C4AA2FB03235B097B64FB6815
:1039F0001B6800225A62FB681B68FA6C9A62FB68BB
:103A00001B68BA6CDA62FB68BA6CDA6007F1100303
:103A100000221A605A609A60DA601A615A619A61EB
:103A200060233B617B6C7B610023BB6100233B62B5
:103A300000237B620023BB6207F11003BA681946BA
:103A4000F86808F071F8054B01221A7000BF503772
:103A5000BD4680BD00BD01051F85EB51450F00200F
:103A600080B582B000AF786039603968786807F057
:103A700015FC00BF0837BD4680BD80B582B000AFE1
:103A8000786039603968786807F0D0FC00BF083783
:103A9000BD4680BD80B58EB000AFF860B9607A6079
:103AA0003B6007F1140300221A605A609A60DA60E2
:103AB0001A617B687B610123BB6102233B6207F1D2
:103AC00014031946B86803F05DFE324B00221A60F9
:103AD000314BFB6200237B6313E07B6B01333A685D
:103AE00002FB03F3FA6AB2FBF3F3013B3B633B6B6C
:103AF000B3F5803F02D23B6B002B07D17B6B0133C8
:103B00007B637B6BB3F5803FE7D300E000BF7B6B4B
:103B1000B3F5803F03D23B6BB3F5803F03D3002363
:103B20007B6301233B633B6B1C4AA2FB0323DB0843
:103B3000BB621B4B0A221A6097F84030642B04D1F9
:103B4000174B1B68174A13600BE097F84030144A74
:103B5000126802FB03F3144AA2FB03235B09114A18
:103B60001360F86807F06AFBFB681B6800225A6262
:103B7000FB681B687A6B9A62FB681B68BA6ADA6238
:103B8000FB68BA6ADA60094B00221A7000BF383746
:103B9000BD4680BDF010002000BD0105CDCCCCCCD1
:103BA000F4100020E40700201F85EB51450F002092
:103BB00080B582B000AF7860786807F0CFFA00BFB8
:103BC0000837BD4680BD80B582B000AF78607868A8
:103BD00007F034FB00BF0837BD4680BD80B58EB00E
:103BE00000AFF860B9607A603B6007F124030022FF
:103BF0001A605A609A60DA601A613B687B6202233D
:103C0000BB6202233B6307F124031946786803F083
:103C1000B9FDF86807F07AFCFB681B6800225A625D
:103C2000FB681B6853229A62FB681B684CF2503297
:103C3000DA62FB684CF25032DA6007F114030022BA
:103C40001A605A609A60DA6000237B610123BB61CD
:103C50000023FB6100233B6207F11403BA68194695
:103C6000F86807F0C5FEB968F86807F0A9FC00BF5E
:103C70003837BD4680BD80B485B000AF786039600C
:103C80007B681B68FB603B681B68BB60FA68BB68AD
:103C90009A4202D24FF0FF3306E0FA68BB689A42BC
:103CA00001D9012300E0002318461437BD465DF812
:103CB000047B70472DE9B04F86B000AF78600B46AB
:103CC000FB70FB78002B01D100232CE04FF00002A9
:103CD0004FF00003C7E904230023FB7312E0FB7BD2
:103CE0009B007A6813441B6800221C461546D7E9DE
:103CF000042312EB040843EB0509C7E90489FB7BA5
:103D00000133FB73FA7BFB789A42E8D3FB780022FD
:103D10009A46934652465B46D7E90401FCF7B0FA4F
:103D200002460B46134618461837BD46BDE8B08F0D
:103D300080B5EAB000AF07F5D473A3F5D27318606D
:103D40000A4607F5D473A3F2A5131A7007F5D473C6
:103D5000A3F2A5131B78002B01D100236DE00023F3
:103D600087F8A73116E097F8A7319B0007F5D472C2
:103D7000A2F5D2721268134497F8A721196807F5C3
:103D8000D473A3F5CE7343F8221097F8A73101330B
:103D900087F8A73107F5D473A3F2A51397F8A721E5
:103DA0001B789A42DFD307F5D473A3F2A5131978D1
:103DB00007F10C00234B04220EF01BF807F5D47317
:103DC000A3F2A5131B7803F00103DBB2002B26D16D
:103DD00007F5D473A3F2A5131B785B08DBB25A1E58
:103DE00007F5D473A3F5CE7353F82230C7F8A0318A
:103DF00007F5D473A3F2A5131B785B08DBB21A4650
:103E000007F5D473A3F5CE7353F82230C7F89C316D
:103E1000D7F8A021D7F89C3113445B080DE007F5D3
:103E2000D473A3F2A5131B785B08DBB21A4607F51F
:103E3000D473A3F5CE7353F82230184607F5D47720
:103E4000BD4680BD773C000880B485B000AF786087
:103E50000B46FB70FB78002B01D100231BE07B6835
:103E60001B68FB600123FB7210E0FB7A9B007A6801
:103E700013441B68FA689A4205D9FB7A9B007A685A
:103E800013441B68FB60FB7A0133FB72FA7AFB7800
:103E90009A42EAD3FB6818461437BD465DF8047BA6
:103EA000704780B485B000AF78600B46FB70FB783C
:103EB000002B01D100231BE07B681B68FB60012302
:103EC000FB7210E0FB7A9B007A6813441B68FA6867
:103ED0009A4205D2FB7A9B007A6813441B68FB6008
:103EE000FB7A0133FB72FA7AFB789A42EAD3FB68D9
:103EF00018461437BD465DF8047B704780B582B024
:103F000000AF00237B60204B1B78002B07D11F4B99
:103F10001B781A461E4B53F822307B602EE01A4B5A
:103F20001B78012B07D11B4B1B7819461848FFF74C
:103F3000C1FE786022E0144B1B78022B07D1154B91
:103F40001B7819461248FFF7F3FE786016E00E4B17
:103F50001B78032B07D10F4B1B7819460C48FFF732
:103F600073FF78600AE0084B1B78042B06D1094BDD
:103F70001B7819460648FFF794FF78607B6818465F
:103F80000837BD4680BD00BFED100020EC100020BA
:103F90005C0F0020E007002080B58AB000AFF86019
:103FA000B9607A607B687B614FF48813BB61022340
:103FB000FB6107F114031946B86803F0E3FB002224
:103FC0000021062002F0A5FF062002F0BEFF00221D
:103FD0000021072002F09DFF072002F0B6FF00221B
:103FE0000021082002F095FF082002F0AEFF002219
:103FF0000021092002F08DFF092002F0A6FF002217
:1040000000210A2002F085FF0A2002F09EFF002214
:104010000021172002F07DFF172002F096FF0022FA
:104020000021282002F075FF282002F08EFFFB6897
:104030001B6800225A62FB681B6853229A62FB6865
:104040001B684CF25032DA62FB684CF25032DA6094
:10405000F86807F01BF800BF2837BD4680BD000098
:1040600080B500AF034B1B689BB2184603F040FDC0
:1040700000BF80BD540F002080B500AF034B1B680C
:104080009BB2184603F034FD00BF80BD540F0020E2
:1040900080B500AF034B1B689BB2184603F028FDA8
:1040A00000BF80BD540F002080B500AF034B1B68DC
:1040B0009BB2184603F01CFD00BF80BD540F0020CA
:1040C00080B500AF034B1B689BB2184603F010FD90
:1040D00000BF80BD540F002080B500AF034B1B68AC
:1040E0009BB2184603F004FD00BF80BD540F0020B2
:1040F00080B500AF034B1B689BB2184603F0F8FC79
:1041000000BF80BD540F002080B485B000AF0346CF
:10411000FB80FA882A4B1B689A424AD1294B1B78AC
:10412000002B3AD0284B1B681B685B6AFB60274B4F
:104130001A78274B1B789A4214D2244B1B781946C5
:10414000244AFB68B2FBF3F3234A42F82130204BA8
:104150001B78012B19D01D4B1B780133DAB21B4B96
:104160001A7012E0194B00221A70184B1B7819466E
:10417000184AFB68B2FBF3F3174A42F82130134B9D
:104180001B780133DAB2114B1A700E4B1B7883F097
:104190000103DAB20B4B1A700BE00B4B1B681B6868
:1041A00000225A62074B1B7883F00103DAB2054BF9
:1041B0001A7000BF1437BD465DF8047B704700BF1E
:1041C000540F0020F8100020480F0020EC100020B1
:1041D000E007002040420F005C0F002080B582B055
:1041E00000AF78601A4B1B687A689A422CD1194B41
:1041F0001A68194B1B689A4203D1164B00221A60A9
:1042000022E0144B1A68154B1B689A420ED2144BCD
:104210001B68144A126891B20122184603F04EFC42
:104220000C4B1B6801330B4A13600DE00C4B1B68F1
:104230000C4A126891B20022184603F03FFC054B6D
:104240001B680133034A136000BF0837BD4680BDB9
:10425000340F0020F0100020F4100020E4070020AC
:104260003C0F0020400F002080B582B000AF786086
:10427000254B1B687A689A4241D17B681B680022F3
:104280005A62224B1A78224B1B789A421CD21E4B40
:104290001B68204A12681146184607F0CFFD0346F6
:1042A0001A4A127811461C4AB2FBF3F31B4A42F831
:1042B0002130174B1B78012B21D0144B1B78013375
:1042C000DAB2124B1A701AE0104B00221A700E4B21
:1042D0001B68104A12681146184607F0AFFD0346E6
:1042E0000A4A127811460C4AB2FBF3F30B4A42F821
:1042F0002130064B1B780133DAB2044B1A7000BF31
:104300000837BD4680BD00BF480F0020EC100020DC
:10431000E00700204C0F002040420F005C0F0020FF
:1043200080B400AF72B600BF00BFFDE780B582B0B9
:1043300000AF00237B60104B5B6C0F4A43F480435B
:1043400053640D4B5B6C03F480437B607B680023FC
:104350003B60094B1B6C084A43F080531364064BC7
:104360001B6C03F080533B603B68072002F0C6FDE6
:1043700000BF0837BD4680BD0038024080B58AB016
:1043800000AF786007F1140300221A605A609A6047
:10439000DA601A617B681B68194A93422CD10023AA
:1043A0003B61184B1B6B174A43F002031363154B19
:1043B0001B6B03F002033B613B694FF410737B619D
:1043C0001223BB610123FB6100233B6204237B6258
:1043D00007F1140319460C4803F0D4F90023FB60DD
:1043E000084B1B6C074A43F400131364054B1B6C0A
:1043F00003F40013FB60FB6800BF2837BD4680BD97
:1044000000540040003802400004024080B58EB0E5
:1044100000AF786007F1240300221A605A609A60A6
:10442000DA601A6107F1140300221A605A609A6078
:10443000DA607B681B68314A93425AD101237B6161
:10444000C023BB610223FB6107F11403184606F089
:1044500033F80346002B01D0FFF762FF00233B61D6
:10446000274B1B6C264A43F400431364244B1B6CFC
:1044700003F400433B613B690023FB60204B1B6B53
:104480001F4A43F0010313631D4B1B6B03F0010331
:10449000FB60FB680023BB60194B1B6B184A43F0A1
:1044A00004031363164B1B6B03F00403BB60BB6870
:1044B00010237B620223BB620023FB6200233B6369
:1044C00006237B6307F1240319460E4803F05AF9CB
:1044D0004FF4A4537B620223BB620023FB620023E0
:1044E0003B6306237B6307F124031946064803F068
:1044F00049F900BF3837BD4680BD00BF003C0040D1
:1045000000380240000002400008024080B58CB034
:1045100000AF786007F11C0300221A605A609A60AD
:10452000DA601A617B681B68414A93422CD10023F0
:10453000BB61404B5B6C3F4A43F4805353643D4B3B
:104540005B6C03F48053BB61BB6900237B61394B17
:104550001B6B384A43F001031363364B1B6B03F0AC
:1045600001037B617B69E023FB6102233B62002343
:104570007B620023BB620523FB6207F11C03194623
:104580002D4803F0FFF84FE07B681B682B4A9342ED
:104590004AD100233B61274B1B6C264A43F48043DE
:1045A0001364244B1B6C03F480433B613B69002381
:1045B000FB60204B1B6B1F4A43F0040313631D4B2E
:1045C0001B6B03F00403FB60FB680023BB60194B0B
:1045D0001B6B184A43F002031363164B1B6B03F06B
:1045E0000203BB60BB680423FB6102233B62002320
:1045F0007B620323BB620523FB6207F11C031946A0
:104600000F4803F0BFF84FF42043FB6102233B62E5
:1046100000237B620323BB620523FB6207F11C03BB
:104620001946084803F0AEF800BF3037BD4680BDDC
:1046300000300140003802400000024000380040D5
:10464000000802400004024080B58AB000AF7860E4
:104650007B681B68884A93422ED100237B62874B7C
:104660005B6C864A43F001035364844B5B6C03F03C
:1046700001037B627B6A00220021182002F049FCC2
:10468000182002F062FC00220021192002F041FCF7
:10469000192002F05AFC002200211A2002F039FCF5
:1046A0001A2002F052FC002200211B2002F031FCF3
:1046B0001B2002F04AFCDAE07B681B68B3F1804FF4
:1046C00016D100233B626D4B1B6C6C4A43F0010317
:1046D00013646A4B1B6C03F001033B623B6A0022CC
:1046E00000211C2002F015FC1C2002F02EFCBEE074
:1046F0007B681B68624A934216D10023FB615F4BC3
:104700001B6C5E4A43F0020313645C4B1B6C03F0AA
:104710000203FB61FB69002200211D2002F0F9FB6E
:104720001D2002F012FCA2E07B681B68554A9342F0
:1047300016D10023BB61514B1B6C504A43F004035C
:1047400013644E4B1B6C03F00403BB61BB69002276
:1047500000211E2002F0DDFB1E2002F0F6FB86E0A9
:104760007B681B68484A934216D100237B61434B08
:104770001B6C424A43F008031364404B1B6C03F06C
:1047800008037B617B6900220021322002F0C1FB1B
:10479000322002F0DAFB6AE07B681B683B4A9342F6
:1047A0002ED100233B61354B5B6C344A43F002034E
:1047B0005364324B5B6C03F002033B613B690022A4
:1047C00000212B2002F0A5FB2B2002F0BEFB0022D3
:1047D00000212C2002F09DFB2C2002F0B6FB0022D1
:1047E00000212D2002F095FB2D2002F0AEFB0022CF
:1047F00000212E2002F08DFB2E2002F0A6FB36E0D9
:104800007B681B68224A934216D10023FB601B4B36
:104810005B6C1A4A43F480335364184B5B6C03F4AB
:104820008033FB60FB6800220021182002F071FB3E
:10483000182002F08AFB1AE07B681B68154A934235
:1048400015D10023BB600D4B1B6C0C4A43F0400399
:1048500013640A4B1B6C03F04003BB60BB6800226F
:1048600000212B2002F055FB2B2002F06EFB00BF35
:104870002837BD4680BD00BF00000140003802401F
:104880000004004000080040000C0040000401400B
:10489000004001400018004080B58AB000AF786049
:1048A00007F1140300221A605A609A60DA601A61F4
:1048B0007B681B68344A934262D100233B61334BCF
:1048C0001B6C324A43F400331364304B1B6C03F40B
:1048D00000333B613B690023FB602C4B1B6B2B4A75
:1048E00043F001031363294B1B6B03F00103FB60CF
:1048F000FB680C237B610223BB610023FB61032364
:104900003B6207237B6207F114031946204802F03B
:1049100039FF204B204A1A601E4B4FF000625A604C
:104920001C4B00229A601B4B0022DA60194B4FF49B
:1049300080621A61174B00225A61164B00229A615D
:10494000144B4FF48072DA61124B00221A62114B41
:1049500000225A620F4802F013FB0346002B01D0DD
:10496000FFF7DEFC7B680B4ADA630A4A7B689363D5
:1049700000220021262002F0CCFA262002F0E5FADF
:1049800000BF2837BD4680BD0044004000380240CB
:1049900000000240BC0D00208860024080B400AFDF
:1049A00000BFFDE780B400AF00BFFDE780B400AFFB
:1049B00000BFFDE780B400AF00BFFDE780B400AFEB
:1049C00000BFFDE780B400AF00BFBD465DF8047BCB
:1049D000704780B400AF00BFBD465DF8047B7047F0
:1049E00080B400AF00BFBD465DF8047B704780B562
:1049F00000AF02F06FF900BF80BD000080B500AFCE
:104A0000024802F055FC00BF80BD00BFBC0D002075
:104A100080B500AF034806F0FBFE034806F0F8FE41
:104A200000BF80BD340B0020E40C002080B500AF37
:104A3000024806F0EDFE00BF80BD00BF340B002031
:104A400080B500AF024806F0E3FE00BF80BD00BFA6
:104A5000340B002080B500AF024806F0D9FE00BF3D
:104A600080BD00BF340B002080B500AF024806F0C7
:104A7000CFFE00BF80BD00BF7C0B002080B500AF23
:104A8000024806F0C5FE00BF80BD00BFC40B002079
:104A900080B500AF024806F0BBFE00BF80BD00BF7E
:104AA0000C0C002080B582B000AF194B1B681B684E
:104AB00003F01003102B24D100237B60144B1B68E0
:104AC0001B687B60124B1B685B687B607B681048CF
:104AD00007F097FF0E4BDB6B1B685B68C3F140036D
:104AE0000C4A13600B4B1B681A460B490B480DF020
:104AF0000EFE0B4B02221A7040220749044807F0B1
:104B00005BFF034807F0FCFF00BF0837BD4680BDD0
:104B1000740D0020E40E0020640E0020A40E00207E
:104B20001C0E002080B500AF034806F071FE03485C
:104B300006F06EFE00BF80BD9C0C00202C0D0020F6
:104B400080B500AF024806F063FE00BF80BD00BF25
:104B50009C0C002080B500AF024806F059FE00BF53
:104B600080BD00BF9C0C002080B500AF024806F05D
:104B70004FFE00BF80BD00BF9C0C002080B500AF81
:104B8000024806F045FE00BF80BD00BF540C002067
:104B900080B500AF024803F0EBFE00BF80BD00BF50
:104BA0001028002080B400AF01231846BD465DF8F0
:104BB000047B704780B582B000AF786039600DF03B
:104BC00079FD034616221A604FF0FF331846083766
:104BD000BD4680BD80B582B000AF78604FF0FF3138
:104BE0007868FFF7E7FF00BFFDE780B586B000AF4C
:104BF000F860B9607A6000237B610AE0AFF300805F
:104C00000146BB685A1CBA60CAB21A707B6901338C
:104C10007B617A697B689A42F0DB7B6818461837BB
:104C2000BD4680BD80B586B000AFF860B9607A60DF
:104C300000237B6109E0BB685A1CBA601B781846E8
:104C4000AFF300807B6901337B617A697B689A42AC
:104C5000F1DB7B6818461837BD4680BD80B483B051
:104C600000AF78604FF0FF3318460C37BD465DF853
:104C7000047B704780B483B000AF786039603B68D4
:104C80004FF400525A60002318460C37BD465DF8B9
:104C9000047B704780B483B000AF7860012318466E
:104CA0000C37BD465DF8047B704780B485B000AF1B
:104CB000F860B9607A60002318461437BD465DF885
:104CC000047B704780B586B000AF7860144A154BFE
:104CD000D31A7B617B693B61134B1B68002B02D1AC
:104CE000114B124A1A60104B1A687B6813443A69D8
:104CF0009A4207D20DF0DEFC03460C221A604FF0F8
:104D0000FF3309E0084B1B68FB60074B1A687B68A0
:104D10001344054A1360FB6818461837BD4680BD2A
:104D20000000022000040000FC1000206030002081
:104D300080B400AF064BD3F88830054A43F47003C3
:104D4000C2F8883000BFBD465DF8047B704700BFE5
:104D500000ED00E0DFF834D0FFF7EAFF0C480D4922
:104D60000D4A002302E0D458C4500433C4188C42C6
:104D7000F9D30A4A0A4C002301E013600432A2422C
:104D8000FBD30DF09DFCFEF735F8704700000220C4
:104D90000000002088090020A441010888090020A3
:104DA00060300020FEE7000080B483B000AF03460F
:104DB0003960FB71074AFB791370074A3B6813603F
:104DC000064B41F222121A8000BF0C37BD465DF837
:104DD000047B704704110020001100200611002000
:104DE00080B584B000AF7860224BDB689847214BD8
:104DF0005B6998471F4B5B6A002B03D01D4B9B6A76
:104E0000002B14D11B4B1B6A7A68120CD2B21046CD
:104E10009847184B1B6A7A68120AD2B21046984714
:104E2000144B1B6A7A68D2B21046984711E07B682F
:104E30001B0CDBB23B737B681B0ADBB27B737B68AA
:104E4000DBB2BB730B4B9B6A07F10C0203211046CC
:104E50009847084BDB6998470346FB73054B9B69F2
:104E60009847044B1B699847FB7B18461037BD4693
:104E700080BD00BFF007002080B584B000AF78602F
:104E80000B46FB70224BDB689847214B5B699847C8
:104E90007B6843F004037B601D4B9B6A002B19D198
:104EA0001B4B1B6A7A68120CD2B210469847184BFB
:104EB0001B6A7A68120AD2B210469847144B1B6AD2
:104EC0007A68D2B210469847114B1B6AFA7810469E
:104ED000984713E07B681B0CDBB23B737B681B0AB3
:104EE000DBB27B737B68DBB2BB73FB78FB73084B75
:104EF0009B6A07F10C02042110469847044B9B69FA
:104F00009847034B1B69984700BF1037BD4680BDCB
:104F1000F007002090B587B000AFF860B960134685
:104F2000FB802B4BDB689847294B5B699847284BE4
:104F30005B6A002B03D0264B9B6A002B26D1244BA7
:104F40001B6AFA68120CD2B210469847204B1B6AB3
:104F5000FA68120AD2B2104698471D4B1B6AFA68CB
:104F6000D2B2104698470023FB820AE0184BDB6957
:104F7000FA8AB9688C18984703462370FB8A013374
:104F8000FB82FA8AFB889A42F0D317E0FB681B0C7D
:104F9000DBB23B74FB681B0ADBB27B74FB68DBB2E1
:104FA000BB740B4B9B6A07F1100203211046984714
:104FB000074B5B6AFA881146B8689847044B9B69AF
:104FC0009847034B1B69984700BF1C37BD4690BDEF
:104FD000F007002080B586B000AFF860B9601346D6
:104FE000FB802B4BDB689847294B5B699847FB6834
:104FF00043F00403FB60264B9B6A002B26D1244B15
:105000001B6AFA68120CD2B210469847204B1B6AF2
:10501000FA68120AD2B2104698471D4B1B6AFA680A
:10502000D2B2104698470023FB820AE0184B1B6A55
:10503000FA8AB9680A44127810469847FB8A013305
:10504000FB82FA8AFB889A42F0D317E0FB681B0CBC
:10505000DBB23B74FB681B0ADBB27B74FB68DBB220
:10506000BB740B4B9B6A07F1100203211046984753
:10507000074B9B6AFA881146B8689847044B9B69AE
:105080009847034B1B69984700BF1837BD4680BD42
:10509000F007002090B585B000AF0346FB710023F8
:1050A000FB810023BB81FB799B000133DB0003F50F
:1050B00000531846FFF794FE0346BB81BB891B02D1
:1050C0009CB2FB799B000133DB0003F504531846C7
:1050D000FFF786FE03462344BB81BB89002B19D012
:1050E000FB799B000133DB0003F500531846FFF703
:1050F00077FE0346FB81FB891B029CB2FB799B0078
:105100000133DB0003F504531846FFF769FE03463D
:105110002344FB81FA89BB899A42C4D1FB89184692
:105120001437BD4690BD90B585B000AF0346FB7106
:105130000023FB810023BB81FB799B000133DB0053
:1051400003F518531846FFF74BFE0346BB81BB8996
:105150001B029CB2FB799B000133DB0003F51C535F
:105160001846FFF73DFE03462344BB81BB89002B55
:1051700019D0FB799B000133DB0003F51853184667
:10518000FFF72EFE0346FB81FB891B029CB2FB79D5
:105190009B000133DB0003F51C531846FFF720FE8C
:1051A00003462344FB81FA89BB899A42C4D1FB8917
:1051B00018461437BD4690BD90B585B000AF034684
:1051C0003960FB711346BB800023FB810023BB6069
:1051D000BB88002B46D0FB799B000133DB0003F535
:1051E00010531846FFF7FCFD03461B029CB2FB79E7
:1051F0009B000133DB0003F514531846FFF7F0FD65
:1052000003462344FB81FB891A02FB799B0002338E
:10521000DB001344BB60BB881A463968B868FFF7E7
:10522000D9FEFA89BB881344FB81FB799B000133CB
:10523000DB0003F510531A46FB891B0A9BB2DBB255
:1052400019461046FFF718FEFB799B000133DB007F
:1052500003F514531A46FB89DBB219461046FFF7D3
:105260000BFE00E000BF1437BD4690BD90B585B081
:1052700000AF03463960FB711346BB800023FB81FE
:105280000023BB60BB88002B46D0FB799B00013319
:10529000DB0003F520531846FFF7A2FD03461B026F
:1052A0009CB2FB799B000133DB0003F524531846C5
:1052B000FFF796FD03462344FB81FB891A02FB7925
:1052C0009B000333DB001344BB60BB881A4639687C
:1052D000B868FFF71FFEFA89BB881344FB81FB798E
:1052E0009B000133DB0003F520531A46FB891B0AA0
:1052F0009BB2DBB219461046FFF7BEFDFB799B005F
:105300000133DB0003F524531A46FB89DBB219464F
:105310001046FFF7B1FD00E000BF1437BD4690BD59
:1053200090B585B000AF03460A46FB711346BB80BB
:105330000023FB81FB799B000133DB0003F5205345
:105340001846FFF74DFD03461B029CB2FB799B00FC
:105350000133DB0003F524531846FFF741FD0346F4
:105360002344FB81FA89BB881344FB81FB799B00B2
:105370000133DB0003F520531A46FB891B0A9BB25D
:10538000DBB219461046FFF777FDFB799B0001332E
:10539000DB0003F524531A46FB89DBB2194610469D
:1053A000FFF76AFD00BF1437BD4690BD90B589B0C8
:1053B00000AF0446084611461A462346FB710346D1
:1053C000BB710B46BB801346FB700023FB83FB794C
:1053D000072B02D94FF0FF330DE1BB7903F00F0328
:1053E000013B0D2B2CD801A252F823F025540008C4
:1053F0004754000847540008475400084154000827
:105400004154000841540008415400084154000828
:10541000475400084754000841540008415400080C
:105420004754000807F10803042219464FF470603E
:10543000FFF770FDBB68002B07D16FF00203DAE0C5
:105440006FF00403D7E000BF00E000BFFB7803F07B
:105450000403002B02D06FF00503CCE0FB78002B97
:1054600028D0BB79012B02D0022B08D022E0FB7898
:1054700003F02103002B1AD16FF00503BBE0FB788A
:1054800003F02003002B06D097F90330002B02DB3A
:105490006FF00503AFE0FB7803F01003002B08D09A
:1054A00097F90330002B04DB6FF00503A3E000BF86
:1054B00000E000BFFB79184600F0ACF8FB799B00D8
:1054C0000133D80097F9033023F00F035AB297F94C
:1054D000063013435BB2DBB21946FFF7CDFCBB8845
:1054E000002B10D1464B1B885A1C91B2444A1180A4
:1054F000BB80434B1B884FF6F072934203D1404B65
:105500004FF440421A80FB799B000133DB0003F526
:1055100080631A46BB881B0A9BB2DBB21946104651
:10552000FFF7AAFCFB799B000133DB0003F5A063C6
:105530001A46BB88DBB219461046FFF79DFCFB7983
:105540009B000133DB0003F5807301211846FFF750
:1055500093FC00BFFB799B000133DB0003F58073F4
:105560001846FFF73DFC0346002BF3D1FB790122DF
:1055700002FA03F31BB2DB431AB2224B1B881BB2A5
:1055800013401BB29AB21F4B1A80FB7803F0010242
:10559000FB7902FA03F31AB21A4B1B881BB21343AE
:1055A0001BB29AB2174B1A80FB79012202FA03F35D
:1055B0001BB2DB431AB2144B1B881BB213401BB245
:1055C0009AB2114B1A80FB79104A002122F813106D
:1055D000FB790F4A0021D15400BFFB799B000133B6
:1055E000DB0003F540731846FFF7FAFB0346002B78
:1055F000F3D097F9073018462437BD4690BD00BF59
:10560000EC070020081100200A1100200C110020D6
:105610001C11002080B582B000AF0346FB71FB79FE
:10562000072B02D94FF0FF3355E0FB799B00013384
:10563000DB0003F5807310211846FFF71DFC00BF47
:10564000FB799B000133DB0003F580731846FFF7FD
:10565000C7FB0346002BF3D1FB799B000133DB0032
:1056600003F500731F211846FFF706FCFB790122A2
:1056700002FA03F31BB2DB431AB2194B1B881BB2AD
:1056800013401BB29AB2164B1A80FB79012202FA20
:1056900003F31BB2DB431AB2124B1B881BB213403D
:1056A0001BB29AB20F4B1A80FB790F4A002122F8E5
:1056B0001310FB790D4A0021D15400BFFB799B00E8
:1056C0000133DB0003F540731846FFF789FB0346FF
:1056D000002BF3D1012318460837BD4680BD00BF1B
:1056E000081100200A1100200C1100201C110020BC
:1056F00080B586B002AFB9607B600346FB7313468A
:10570000BB81BA89F87B042301933B8B00937B68B0
:10571000B96800F005F8034618461037BD4680BD4D
:1057200080B586B000AFB9607B600346FB7313465B
:10573000BB810023FB752023BB750023BB82FB7B51
:10574000072B02D94FF0FF3377E1FB7B9B0001333E
:10575000DB001846FFF744FB034603F00F03042B5E
:1057600002DC022B05DA01E00B2B02D06FF0040300
:1057700063E100BFFB7B9B000133DB001846FFF7B2
:105780002FFB0346FB75FB7D042B24D097F82430B8
:10579000102B02D16FF004034FE197F82430042B53
:1057A00016D1FB7D0A2B02D0FB7D0B2B02D16FF0B3
:1057B000040342E1FB7B9B000133DB0003F5406304
:1057C000042279681846FFF705FC2023BB7502E028
:1057D0006FF00B0331E1FB7D03F00303022B22D1B9
:1057E0003B8C002B1CD0FB7B9B000133DB0003F5C3
:1057F00080531A463B8C1B0A9BB2DBB219461046FB
:10580000FFF73AFBFB7B9B000133DB0003F588537A
:105810001A463B8CDBB219461046FFF72DFB02E01F
:105820006FF00A0309E1BB89002B02D16FF00D0371
:1058300003E17B681B783B613B691B027A6801329C
:10584000127813443B613B691B027A68023212787A
:1058500013443B613B691B027A680332127813449C
:105860003B613B69002B0ED1FB7B9B000133DB00CE
:105870001846FFF7B5FA034603F00403042B02D0E1
:105880006FF00B03D9E03B8C002B0ED1FB7B9B0010
:105890000133DB001846FFF7A3FA034603F00403C5
:1058A000042B02D06FF00A03C7E0FB7B9B0001339F
:1058B000DB0003F540731846FFF792FA0346FB75C9
:1058C000FB7D422B08D0FB7D222B05D0FB7D322BAC
:1058D00002D06FF00603B0E0FB7B9B000133DB00DE
:1058E00003F54063042279681846FFF773FBFB7BDE
:1058F0009B000133DB0003F580531A463B8C1B0AE7
:105900009BB2DBB219461046FFF7B6FAFB7B9B0051
:105910000133DB0003F588531A463B8CDBB2194692
:105920001046FFF7A9FAFB7B9B000133DB0003F570
:10593000F8531846FFF754FA03469B02BB82BA8914
:10594000BB8A9A4201D9BB8ABB81FB7B1846FFF711
:10595000A1FB0346BB82FB7B9B000133DB0003F50D
:1059600040731846FFF73CFA0346002B02D16FF054
:10597000030362E0334B1B881A46FB7B42FA03F3B6
:1059800003F00103002B05D0BA89BB8A9A4201D9E2
:10599000002352E0BA89BB8A9A4200D9D5E700BFFA
:1059A000BA89FB7BB9681846FFF706FCFB7B9B00B6
:1059B0000133DB0003F5807320211846FFF75CFA02
:1059C00000BFFB7B9B000133DB0003F580731846AF
:1059D000FFF706FA0346002BF3D1FB7B9B00013354
:1059E000DB0003F500731846FFF7FAF9034603F0EE
:1059F0001F03FB75FB7D03F01003002B0CD0FB7B1A
:105A00009B000133DB0003F5007310211846FFF7FC
:105A100033FA00BFBB8910E0FB7D03F00803002BC5
:105A2000DBD0FB7B9B000133DB0003F50073082117
:105A30001846FFF721FA6FF00C0318461837BD46D9
:105A400080BD00BF0811002080B588B002AFB960EA
:105A50007B600346FB731346BB810423FB7407F191
:105A600013037B61BA89F87B7B6901933B6A0093DE
:105A70007B68B96800F006F8034618461837BD463B
:105A800080BD000080B588B000AFB9607B60034680
:105A9000FB731346BB810023FB83FB7B072B02D9DF
:105AA0004FF0FF33F5E1FB7B9B000133DB00184631
:105AB000FFF796F903467B777B7F03F00F03042BF8
:105AC00002DC022B05DA01E00B2B02D06FF004039D
:105AD000DFE100BFBB89002B02D16FF00D03D8E1DD
